{
  "contractName": "Flipcoin",
  "abi": [
    {
      "anonymous": false,
      "inputs": [
        {
          "indexed": false,
          "internalType": "string",
          "name": "messageToPlayer",
          "type": "string"
        }
      ],
      "name": "coinFlipResult",
      "type": "event"
    },
    {
      "anonymous": false,
      "inputs": [
        {
          "indexed": false,
          "internalType": "string",
          "name": "messageToPlayer",
          "type": "string"
        },
        {
          "indexed": false,
          "internalType": "address",
          "name": "creator",
          "type": "address"
        },
        {
          "indexed": false,
          "internalType": "uint256",
          "name": "toTransfer",
          "type": "uint256"
        }
      ],
      "name": "fundsSentToPlayer",
      "type": "event"
    },
    {
      "anonymous": false,
      "inputs": [
        {
          "indexed": false,
          "internalType": "string",
          "name": "messageToPlayer",
          "type": "string"
        },
        {
          "indexed": false,
          "internalType": "address",
          "name": "creator",
          "type": "address"
        },
        {
          "indexed": false,
          "internalType": "uint256",
          "name": "randomNumber",
          "type": "uint256"
        }
      ],
      "name": "generatedRandomNumber",
      "type": "event"
    },
    {
      "anonymous": false,
      "inputs": [
        {
          "indexed": false,
          "internalType": "address",
          "name": "adr",
          "type": "address"
        }
      ],
      "name": "playerRegistered",
      "type": "event"
    },
    {
      "anonymous": false,
      "inputs": [
        {
          "indexed": false,
          "internalType": "string",
          "name": "messageToPlayer",
          "type": "string"
        },
        {
          "indexed": false,
          "internalType": "address",
          "name": "creator",
          "type": "address"
        }
      ],
      "name": "provableQuerySent",
      "type": "event"
    },
    {
      "constant": true,
      "inputs": [],
      "name": "balance",
      "outputs": [
        {
          "internalType": "uint256",
          "name": "",
          "type": "uint256"
        }
      ],
      "payable": false,
      "stateMutability": "view",
      "type": "function"
    },
    {
      "constant": true,
      "inputs": [
        {
          "internalType": "uint256",
          "name": "",
          "type": "uint256"
        }
      ],
      "name": "creators",
      "outputs": [
        {
          "internalType": "address payable",
          "name": "",
          "type": "address"
        }
      ],
      "payable": false,
      "stateMutability": "view",
      "type": "function"
    },
    {
      "constant": true,
      "inputs": [],
      "name": "owner",
      "outputs": [
        {
          "internalType": "address",
          "name": "",
          "type": "address"
        }
      ],
      "payable": false,
      "stateMutability": "view",
      "type": "function"
    },
    {
      "constant": false,
      "inputs": [
        {
          "internalType": "bytes32",
          "name": "_myid",
          "type": "bytes32"
        },
        {
          "internalType": "string",
          "name": "_result",
          "type": "string"
        }
      ],
      "name": "__callback",
      "outputs": [],
      "payable": false,
      "stateMutability": "nonpayable",
      "type": "function"
    },
    {
      "constant": false,
      "inputs": [
        {
          "internalType": "bytes32",
          "name": "_queryId",
          "type": "bytes32"
        },
        {
          "internalType": "string",
          "name": "_result",
          "type": "string"
        },
        {
          "internalType": "bytes",
          "name": "_proof",
          "type": "bytes"
        }
      ],
      "name": "__callback",
      "outputs": [],
      "payable": false,
      "stateMutability": "nonpayable",
      "type": "function"
    },
    {
      "constant": false,
      "inputs": [],
      "name": "queryOracle",
      "outputs": [
        {
          "internalType": "bytes32",
          "name": "",
          "type": "bytes32"
        }
      ],
      "payable": true,
      "stateMutability": "payable",
      "type": "function"
    },
    {
      "constant": false,
      "inputs": [],
      "name": "testRandom",
      "outputs": [
        {
          "internalType": "bytes32",
          "name": "",
          "type": "bytes32"
        }
      ],
      "payable": false,
      "stateMutability": "nonpayable",
      "type": "function"
    },
    {
      "constant": false,
      "inputs": [],
      "name": "depositFunds",
      "outputs": [],
      "payable": true,
      "stateMutability": "payable",
      "type": "function"
    },
    {
      "constant": false,
      "inputs": [
        {
          "internalType": "bool",
          "name": "betOnHead",
          "type": "bool"
        }
      ],
      "name": "flipCoin",
      "outputs": [],
      "payable": true,
      "stateMutability": "payable",
      "type": "function"
    },
    {
      "constant": true,
      "inputs": [],
      "name": "getPlayerData",
      "outputs": [
        {
          "internalType": "uint256",
          "name": "won",
          "type": "uint256"
        },
        {
          "internalType": "uint256",
          "name": "lost",
          "type": "uint256"
        },
        {
          "internalType": "uint256",
          "name": "plays",
          "type": "uint256"
        }
      ],
      "payable": false,
      "stateMutability": "view",
      "type": "function"
    },
    {
      "constant": true,
      "inputs": [],
      "name": "getContractBalance",
      "outputs": [
        {
          "internalType": "uint256",
          "name": "",
          "type": "uint256"
        }
      ],
      "payable": false,
      "stateMutability": "view",
      "type": "function"
    },
    {
      "constant": false,
      "inputs": [],
      "name": "withdrawAll",
      "outputs": [
        {
          "internalType": "uint256",
          "name": "",
          "type": "uint256"
        }
      ],
      "payable": false,
      "stateMutability": "nonpayable",
      "type": "function"
    }
  ],
  "bytecode": "0x608060405267016345785d8a00006007556706f05b59d3b20000600855336000806101000a81548173ffffffffffffffffffffffffffffffffffffffff021916908373ffffffffffffffffffffffffffffffffffffffff160217905550612f478061006b6000396000f3fe6080604052600436106100a75760003560e01c8063853828b611610064578063853828b6146103995780638da5cb5b146103c4578063b69ef8a81461041b578063cd53d08e14610446578063e2c41dbc146104c1578063fbddd14b146104cb576100a7565b80631cf1f4ba146100ac57806326afe980146100e557806327dc297e1461010357806338bbfa50146101d55780636f9fb98a1461033e5780637b8ff38f14610369575b600080fd5b3480156100b857600080fd5b506100c16104f6565b60405180848152602001838152602001828152602001935050505060405180910390f35b6100ed6105d4565b6040518082815260200191505060405180910390f35b34801561010f57600080fd5b506101d36004803603604081101561012657600080fd5b81019080803590602001909291908035906020019064010000000081111561014d57600080fd5b82018360208201111561015f57600080fd5b8035906020019184600183028401116401000000008311171561018157600080fd5b91908080601f016020809104026020016040519081016040528093929190818152602001838380828437600081840152601f19601f8201169050808301925050505050505091929192905050506105fc565b005b3480156101e157600080fd5b5061033c600480360360608110156101f857600080fd5b81019080803590602001909291908035906020019064010000000081111561021f57600080fd5b82018360208201111561023157600080fd5b8035906020019184600183028401116401000000008311171561025357600080fd5b91908080601f016020809104026020016040519081016040528093929190818152602001838380828437600081840152601f19601f820116905080830192505050505050509192919290803590602001906401000000008111156102b657600080fd5b8201836020820111156102c857600080fd5b803590602001918460018302840111640100000000831117156102ea57600080fd5b91908080601f016020809104026020016040519081016040528093929190818152602001838380828437600081840152601f19601f82011690508083019250505050505050919291929050505061063f565b005b34801561034a57600080fd5b506103536106e9565b6040518082815260200191505060405180910390f35b6103976004803603602081101561037f57600080fd5b810190808035151590602001909291905050506106f3565b005b3480156103a557600080fd5b506103ae6108be565b6040518082815260200191505060405180910390f35b3480156103d057600080fd5b506103d9610976565b604051808273ffffffffffffffffffffffffffffffffffffffff1673ffffffffffffffffffffffffffffffffffffffff16815260200191505060405180910390f35b34801561042757600080fd5b5061043061099b565b6040518082815260200191505060405180910390f35b34801561045257600080fd5b5061047f6004803603602081101561046957600080fd5b81019080803590602001909291905050506109a1565b604051808273ffffffffffffffffffffffffffffffffffffffff1673ffffffffffffffffffffffffffffffffffffffff16815260200191505060405180910390f35b6104c96109dd565b005b3480156104d757600080fd5b506104e06109ef565b6040518082815260200191505060405180910390f35b600080600080339050600a60008273ffffffffffffffffffffffffffffffffffffffff1673ffffffffffffffffffffffffffffffffffffffff16815260200190815260200160002060010154600a60008373ffffffffffffffffffffffffffffffffffffffff1673ffffffffffffffffffffffffffffffffffffffff16815260200190815260200160002060000154600a60008473ffffffffffffffffffffffffffffffffffffffff1673ffffffffffffffffffffffffffffffffffffffff1681526020019081526020016000206002015493509350935050909192565b60008060009050600062030d40905060006105f183600184610ac6565b905080935050505090565b61063b828260006040519080825280601f01601f1916602001820160405280156106355781602001600182028038833980820191505090505b5061063f565b5050565b8060099080519060200190610655929190612d71565b5060006002836040516020018082805190602001908083835b60208310610691578051825260208201915060208101905060208303925061066e565b6001836020036101000a0380198251168184511680821785525050505050509050019150506040516020818303038152906040528051906020012060001c816106d657fe5b0690506106e38482611061565b50505050565b6000600654905090565b6007548034101561070357600080fd5b60003490508060066000828254019250508190555061072133611254565b6107296105d4565b50600a60003373ffffffffffffffffffffffffffffffffffffffff1673ffffffffffffffffffffffffffffffffffffffff1681526020019081526020016000206002016000815480929190600101919050555080600a60003373ffffffffffffffffffffffffffffffffffffffff1673ffffffffffffffffffffffffffffffffffffffff1681526020019081526020016000206005018190555082600a60003373ffffffffffffffffffffffffffffffffffffffff1673ffffffffffffffffffffffffffffffffffffffff16815260200190815260200160002060040160006101000a81548160ff0219169083151502179055507f84d49e2e3db1832a23c1085827f74bba498a99ae93ba6c8826b309a594c8bbbf3360405180806020018373ffffffffffffffffffffffffffffffffffffffff1673ffffffffffffffffffffffffffffffffffffffff168152602001828103825260108152602001807f70726f7661626c652071756572696564000000000000000000000000000000008152506020019250505060405180910390a1505050565b60008060009054906101000a900473ffffffffffffffffffffffffffffffffffffffff1673ffffffffffffffffffffffffffffffffffffffff163373ffffffffffffffffffffffffffffffffffffffff161461091957600080fd5b6000600654905060006006819055503373ffffffffffffffffffffffffffffffffffffffff166108fc829081150290604051600060405180830381858888f1935050505015801561096e573d6000803e3d6000fd5b508091505090565b6000809054906101000a900473ffffffffffffffffffffffffffffffffffffffff1681565b60065481565b600b81815481106109ae57fe5b906000526020600020016000915054906101000a900473ffffffffffffffffffffffffffffffffffffffff1681565b34600660008282540192505081905550565b60008033604051602001808273ffffffffffffffffffffffffffffffffffffffff1673ffffffffffffffffffffffffffffffffffffffff1660601b8152601401915050604051602081830303815290604052805190602001209050610abf816040518060400160405280600181526020017f31000000000000000000000000000000000000000000000000000000000000008152506040518060400160405280600481526020017f746573740000000000000000000000000000000000000000000000000000000081525061063f565b8091505090565b60008083118015610ad8575060208311155b610ae157600080fd5b600a84029350606060016040519080825280601f01601f191660200182016040528015610b1d5781602001600182028038833980820191505090505b5090508360f81b81600081518110610b3157fe5b60200101907effffffffffffffffffffffffffffffffffffffffffffffffffffffffffffff1916908160001a905350606060206040519080825280601f01601f191660200182016040528015610b965781602001600182028038833980820191505090505b509050606060206040519080825280601f01601f191660200182016040528015610bcf5781602001600182028038833980820191505090505b5090506000610bdc6112fc565b905060208352424118600143034018602084015260208252806020830152606060206040519080825280601f01601f191660200182016040528015610c305781602001600182028038833980820191505090505b509050886020820152606060086040519080825280601f01601f191660200182016040528015610c6f5781602001600182028038833980820191505090505b509050610c82826018600884600061161c565b50610c8b612df1565b60405180608001604052808781526020018881526020018681526020018481525090506000610cf06040518060400160405280600681526020017f72616e646f6d0000000000000000000000000000000000000000000000000000815250838c61167b565b9050606060086040519080825280601f01601f191660200182016040528015610d285781602001600182028038833980820191505090505b50905060208401517f0100000000000000000000000000000000000000000000000000000000000000810460278301537e01000000000000000000000000000000000000000000000000000000000000810460268301537d010000000000000000000000000000000000000000000000000000000000810460258301537c0100000000000000000000000000000000000000000000000000000000810460248301537b01000000000000000000000000000000000000000000000000000000810460238301537a01000000000000000000000000000000000000000000000000000081046022830153790100000000000000000000000000000000000000000000000000810460218301537801000000000000000000000000000000000000000000000000810460208301535061104e828285600160048110610e6757fe5b6020020151600287600060048110610e7b57fe5b60200201516040518082805190602001908083835b60208310610eb35780518252602082019150602081019050602083039250610e90565b6001836020036101000a038019825116818451168082178552505050505050905001915050602060405180830381855afa158015610ef5573d6000803e3d6000fd5b5050506040513d6020811015610f0a57600080fd5b810190808051906020019092919050505087600260048110610f2857fe5b60200201516040516020018085805190602001908083835b60208310610f635780518252602082019150602081019050602083039250610f40565b6001836020036101000a03801982511681845116808217855250505050505090500184805190602001908083835b60208310610fb45780518252602082019150602081019050602083039250610f91565b6001836020036101000a03801982511681845116808217855250505050505090500183815260200182805190602001908083835b6020831061100b5780518252602082019150602081019050602083039250610fe8565b6001836020036101000a038019825116818451168082178552505050505050905001945050505050604051602081830303815290604052805190602001206119ea565b8199505050505050505050509392505050565b600080600090505b600b805490508110156111a057600b818154811061108357fe5b9060005260206000200160009054906101000a900473ffffffffffffffffffffffffffffffffffffffff16915083600a60008473ffffffffffffffffffffffffffffffffffffffff1673ffffffffffffffffffffffffffffffffffffffff168152602001908152602001600020600301541415611193576000801b600a60008473ffffffffffffffffffffffffffffffffffffffff1673ffffffffffffffffffffffffffffffffffffffff168152602001908152602001600020600301819055506000801b600a60008473ffffffffffffffffffffffffffffffffffffffff1673ffffffffffffffffffffffffffffffffffffffff168152602001908152602001600020600301819055506111a0565b8080600101915050611069565b507f37fa2195aada7105019b5e3463716d2d0c919ef43297bcfbbea0846f552390e3818360405180806020018473ffffffffffffffffffffffffffffffffffffffff1673ffffffffffffffffffffffffffffffffffffffff1681526020018381526020018281038252600e8152602001807f637265617465642072616e646f6d000000000000000000000000000000000000815250602001935050505060405180910390a161124f8183611a06565b505050565b600080905060008090505b600b805490508110156112e957600b818154811061127957fe5b9060005260206000200160009054906101000a900473ffffffffffffffffffffffffffffffffffffffff1673ffffffffffffffffffffffffffffffffffffffff168373ffffffffffffffffffffffffffffffffffffffff1614156112dc57600191505b808060010191505061125f565b50806112f8576112f7611b84565b5b5050565b60008073ffffffffffffffffffffffffffffffffffffffff16600260009054906101000a900473ffffffffffffffffffffffffffffffffffffffff1673ffffffffffffffffffffffffffffffffffffffff16148061138457506000611382600260009054906101000a900473ffffffffffffffffffffffffffffffffffffffff16611d2c565b145b15611395576113936000611d37565b505b600260009054906101000a900473ffffffffffffffffffffffffffffffffffffffff1673ffffffffffffffffffffffffffffffffffffffff166338cc48316040518163ffffffff1660e01b8152600401602060405180830381600087803b1580156113ff57600080fd5b505af1158015611413573d6000803e3d6000fd5b505050506040513d602081101561142957600080fd5b810190808051906020019092919050505073ffffffffffffffffffffffffffffffffffffffff16600160009054906101000a900473ffffffffffffffffffffffffffffffffffffffff1673ffffffffffffffffffffffffffffffffffffffff161461157457600260009054906101000a900473ffffffffffffffffffffffffffffffffffffffff1673ffffffffffffffffffffffffffffffffffffffff166338cc48316040518163ffffffff1660e01b8152600401602060405180830381600087803b1580156114f857600080fd5b505af115801561150c573d6000803e3d6000fd5b505050506040513d602081101561152257600080fd5b8101908080519060200190929190505050600160006101000a81548173ffffffffffffffffffffffffffffffffffffffff021916908373ffffffffffffffffffffffffffffffffffffffff1602179055505b600160009054906101000a900473ffffffffffffffffffffffffffffffffffffffff1673ffffffffffffffffffffffffffffffffffffffff1663abaa5f3e6040518163ffffffff1660e01b815260040160206040518083038186803b1580156115dc57600080fd5b505afa1580156115f0573d6000803e3d6000fd5b505050506040513d602081101561160657600080fd5b8101908080519060200190929190505050905090565b606060008285019050808451101561163357600080fd5b600086602001905060008460200190505b86886020010182101561166c5781890151808288015250602082019150602081019050611644565b85935050505095945050505050565b60008073ffffffffffffffffffffffffffffffffffffffff16600260009054906101000a900473ffffffffffffffffffffffffffffffffffffffff1673ffffffffffffffffffffffffffffffffffffffff16148061170357506000611701600260009054906101000a900473ffffffffffffffffffffffffffffffffffffffff16611d2c565b145b15611714576117126000611d37565b505b600260009054906101000a900473ffffffffffffffffffffffffffffffffffffffff1673ffffffffffffffffffffffffffffffffffffffff166338cc48316040518163ffffffff1660e01b8152600401602060405180830381600087803b15801561177e57600080fd5b505af1158015611792573d6000803e3d6000fd5b505050506040513d60208110156117a857600080fd5b810190808051906020019092919050505073ffffffffffffffffffffffffffffffffffffffff16600160009054906101000a900473ffffffffffffffffffffffffffffffffffffffff1673ffffffffffffffffffffffffffffffffffffffff16146118f357600260009054906101000a900473ffffffffffffffffffffffffffffffffffffffff1673ffffffffffffffffffffffffffffffffffffffff166338cc48316040518163ffffffff1660e01b8152600401602060405180830381600087803b15801561187757600080fd5b505af115801561188b573d6000803e3d6000fd5b505050506040513d60208110156118a157600080fd5b8101908080519060200190929190505050600160006101000a81548173ffffffffffffffffffffffffffffffffffffffff021916908373ffffffffffffffffffffffffffffffffffffffff1602179055505b6060600460405190808252806020026020018201604052801561192a57816020015b60608152602001906001900390816119155790505b5090508360006004811061193a57fe5b60200201518160008151811061194c57fe5b60200260200101819052508360016004811061196457fe5b60200201518160018151811061197657fe5b60200260200101819052508360026004811061198e57fe5b6020020151816002815181106119a057fe5b6020026020010181905250836003600481106119b857fe5b6020020151816003815181106119ca57fe5b60200260200101819052506119e0858285611d48565b9150509392505050565b8060046000848152602001908152602001600020819055505050565b611a0e612e18565b600a60008473ffffffffffffffffffffffffffffffffffffffff1673ffffffffffffffffffffffffffffffffffffffff1681526020019081526020016000206040518060c0016040529081600082015481526020016001820154815260200160028201548152602001600382015481526020016004820160009054906101000a900460ff16151515158152602001600582015481525050905060006001831415611abb5760019050611ad7565b6000831415611acd5760009050611ad6565b6000611ad557fe5b5b5b816080015115158115151415611b055781602001805180919060010181525050611b00846122ae565b611b7e565b816000018051809190600101815250507f921679bd194d714a16755b5a884fd061cf2dc194ef44ed3f453b13eeaf1cf1e46040518080602001828103825260058152602001807f6c6f73657200000000000000000000000000000000000000000000000000000081525060200191505060405180910390a15b50505050565b611b8c612e18565b600033905060008260000181815250506000826020018181525050600082604001818152505060008260a00181815250506000801b82606001818152505081600a60008373ffffffffffffffffffffffffffffffffffffffff1673ffffffffffffffffffffffffffffffffffffffff1681526020019081526020016000206000820151816000015560208201518160010155604082015181600201556060820151816003015560808201518160040160006101000a81548160ff02191690831515021790555060a08201518160050155905050600b8190806001815401808255809150509060018203906000526020600020016000909192909190916101000a81548173ffffffffffffffffffffffffffffffffffffffff021916908373ffffffffffffffffffffffffffffffffffffffff160217905550507f9b66d49082843aa418cd502edc3b870cda1cef5aa3c1e289ca61475532afd35681604051808273ffffffffffffffffffffffffffffffffffffffff1673ffffffffffffffffffffffffffffffffffffffff16815260200191505060405180910390a15050565b6000813b9050919050565b6000611d416123f7565b9050919050565b60008073ffffffffffffffffffffffffffffffffffffffff16600260009054906101000a900473ffffffffffffffffffffffffffffffffffffffff1673ffffffffffffffffffffffffffffffffffffffff161480611dd057506000611dce600260009054906101000a900473ffffffffffffffffffffffffffffffffffffffff16611d2c565b145b15611de157611ddf6000611d37565b505b600260009054906101000a900473ffffffffffffffffffffffffffffffffffffffff1673ffffffffffffffffffffffffffffffffffffffff166338cc48316040518163ffffffff1660e01b8152600401602060405180830381600087803b158015611e4b57600080fd5b505af1158015611e5f573d6000803e3d6000fd5b505050506040513d6020811015611e7557600080fd5b810190808051906020019092919050505073ffffffffffffffffffffffffffffffffffffffff16600160009054906101000a900473ffffffffffffffffffffffffffffffffffffffff1673ffffffffffffffffffffffffffffffffffffffff1614611fc057600260009054906101000a900473ffffffffffffffffffffffffffffffffffffffff1673ffffffffffffffffffffffffffffffffffffffff166338cc48316040518163ffffffff1660e01b8152600401602060405180830381600087803b158015611f4457600080fd5b505af1158015611f58573d6000803e3d6000fd5b505050506040513d6020811015611f6e57600080fd5b8101908080519060200190929190505050600160006101000a81548173ffffffffffffffffffffffffffffffffffffffff021916908373ffffffffffffffffffffffffffffffffffffffff1602179055505b6000600160009054906101000a900473ffffffffffffffffffffffffffffffffffffffff1673ffffffffffffffffffffffffffffffffffffffff16632ef3accc86856040518363ffffffff1660e01b81526004018080602001838152602001828103825284818151815260200191508051906020019080838360005b8381101561205757808201518184015260208101905061203c565b50505050905090810190601f1680156120845780820380516001836020036101000a031916815260200191505b509350505050602060405180830381600087803b1580156120a457600080fd5b505af11580156120b8573d6000803e3d6000fd5b505050506040513d60208110156120ce57600080fd5b81019080805190602001909291905050509050823a02670de0b6b3a764000001811115612101576000801b9150506122a7565b606061210c8561294e565b9050600160009054906101000a900473ffffffffffffffffffffffffffffffffffffffff1673ffffffffffffffffffffffffffffffffffffffff1663c55c1cb68360008985896040518663ffffffff1660e01b8152600401808581526020018060200180602001848152602001838103835286818151815260200191508051906020019080838360005b838110156121b1578082015181840152602081019050612196565b50505050905090810190601f1680156121de5780820380516001836020036101000a031916815260200191505b50838103825285818151815260200191508051906020019080838360005b838110156122175780820151818401526020810190506121fc565b50505050905090810190601f1680156122445780820380516001836020036101000a031916815260200191505b5096505050505050506020604051808303818588803b15801561226657600080fd5b505af115801561227a573d6000803e3d6000fd5b50505050506040513d602081101561229157600080fd5b8101908080519060200190929190505050925050505b9392505050565b60006002600a60008473ffffffffffffffffffffffffffffffffffffffff1673ffffffffffffffffffffffffffffffffffffffff16815260200190815260200160002060050154029050806006600082825403925050819055508173ffffffffffffffffffffffffffffffffffffffff166108fc829081150290604051600060405180830381858888f1935050505015801561234e573d6000803e3d6000fd5b507f40e3addd81830ae9b21f594ecdbc13a226e35623aa70207de4c0c4ffee391ed2828260405180806020018473ffffffffffffffffffffffffffffffffffffffff1673ffffffffffffffffffffffffffffffffffffffff168152602001838152602001828103825260208152602001807f57696e6e65722121212c2046756e64732073656e7420746f20706c6179657220815250602001935050505060405180910390a15050565b600080612417731d3b2638a7cc9f2cb3d298a3da7a90b67e5506ed611d2c565b11156124b957731d3b2638a7cc9f2cb3d298a3da7a90b67e5506ed600260006101000a81548173ffffffffffffffffffffffffffffffffffffffff021916908373ffffffffffffffffffffffffffffffffffffffff1602179055506124b06040518060400160405280600b81526020017f6574685f6d61696e6e65740000000000000000000000000000000000000000008152506129ce565b6001905061294b565b60006124d873c03a2615d5efaf5f49f60b7bb6583eaec212fdf1611d2c565b111561257a5773c03a2615d5efaf5f49f60b7bb6583eaec212fdf1600260006101000a81548173ffffffffffffffffffffffffffffffffffffffff021916908373ffffffffffffffffffffffffffffffffffffffff1602179055506125716040518060400160405280600c81526020017f6574685f726f707374656e3300000000000000000000000000000000000000008152506129ce565b6001905061294b565b600061259973b7a07bcf2ba2f2703b24c0691b5278999c59ac7e611d2c565b111561263b5773b7a07bcf2ba2f2703b24c0691b5278999c59ac7e600260006101000a81548173ffffffffffffffffffffffffffffffffffffffff021916908373ffffffffffffffffffffffffffffffffffffffff1602179055506126326040518060400160405280600981526020017f6574685f6b6f76616e00000000000000000000000000000000000000000000008152506129ce565b6001905061294b565b600061265a73146500cfd35b22e4a392fe0adc06de1a1368ed48611d2c565b11156126fc5773146500cfd35b22e4a392fe0adc06de1a1368ed48600260006101000a81548173ffffffffffffffffffffffffffffffffffffffff021916908373ffffffffffffffffffffffffffffffffffffffff1602179055506126f36040518060400160405280600b81526020017f6574685f72696e6b6562790000000000000000000000000000000000000000008152506129ce565b6001905061294b565b600061271b73a2998efd205fb9d4b4963afb70778d6354ad3a41611d2c565b11156127bd5773a2998efd205fb9d4b4963afb70778d6354ad3a41600260006101000a81548173ffffffffffffffffffffffffffffffffffffffff021916908373ffffffffffffffffffffffffffffffffffffffff1602179055506127b46040518060400160405280600a81526020017f6574685f676f65726c69000000000000000000000000000000000000000000008152506129ce565b6001905061294b565b60006127dc736f485c8bf6fc43ea212e93bbf8ce046c7f1cb475611d2c565b111561284057736f485c8bf6fc43ea212e93bbf8ce046c7f1cb475600260006101000a81548173ffffffffffffffffffffffffffffffffffffffff021916908373ffffffffffffffffffffffffffffffffffffffff1602179055506001905061294b565b600061285f7320e12a1f859b3feae5fb2a0a32c18f5a65555bbf611d2c565b11156128c3577320e12a1f859b3feae5fb2a0a32c18f5a65555bbf600260006101000a81548173ffffffffffffffffffffffffffffffffffffffff021916908373ffffffffffffffffffffffffffffffffffffffff1602179055506001905061294b565b60006128e27351efaf4c8b3c9afbd5ab9f4bbc82784ab6ef8faa611d2c565b1115612946577351efaf4c8b3c9afbd5ab9f4bbc82784ab6ef8faa600260006101000a81548173ffffffffffffffffffffffffffffffffffffffff021916908373ffffffffffffffffffffffffffffffffffffffff1602179055506001905061294b565b600090505b90565b60606129586129e8565b612960612e53565b61296c816104006129f4565b61297581612a3e565b60008090505b83518110156129b7576129aa84828151811061299357fe5b602002602001015183612a4c90919063ffffffff16565b808060010191505061297b565b506129c181612a71565b8060000151915050919050565b80600390805190602001906129e4929190612e6d565b5050565b60405180590338823950565b6000819050600060208281612a0557fe5b0614612a1e5760208181612a1557fe5b06602003810190505b808360200181815250506040518084526000815281810160405250505050565b612a49816004612a7f565b50565b612a598260028351612aa0565b612a6c8183612be090919063ffffffff16565b505050565b612a7c816007612a7f565b50565b612a9c601f60058360ff16901b1783612c8b90919063ffffffff16565b5050565b60178111612acc57612ac78160058460ff16901b60ff161784612c8b90919063ffffffff16565b612bdb565b60ff8111612b0d57612af1601860058460ff16901b1784612c8b90919063ffffffff16565b612b0781600185612ccb9092919063ffffffff16565b50612bda565b61ffff8111612b4f57612b33601960058460ff16901b1784612c8b90919063ffffffff16565b612b4981600285612ccb9092919063ffffffff16565b50612bd9565b63ffffffff8111612b9357612b77601a60058460ff16901b1784612c8b90919063ffffffff16565b612b8d81600485612ccb9092919063ffffffff16565b50612bd8565b67ffffffffffffffff8111612bd757612bbf601b60058460ff16901b1784612c8b90919063ffffffff16565b612bd581600885612ccb9092919063ffffffff16565b505b5b5b5b5b505050565b612be8612e53565b82602001518360000151518351011115612c1857612c17836002612c1186602001518651612d32565b02612d4e565b5b60008060008451905085518051602081830101945086518101825260208701935050505b60208110612c5f5781518352602083019250602082019150602081039050612c3c565b60006001826020036101000a039050801983511681855116818117865250508694505050505092915050565b81602001516001836000015151011115612cb157612cb0826002846020015102612d4e565b5b815180516020818301018381536001820183525050505050565b612cd3612e53565b836020015184600001515183011115612d0157612d00846002612cfa876020015186612d32565b02612d4e565b5b60006001836101000a0390508451805184818301018684198251161781528582018352505050849150509392505050565b600081831115612d4457829050612d48565b8190505b92915050565b606082600001519050612d6183836129f4565b612d6b8382612be0565b50505050565b828054600181600116156101000203166002900490600052602060002090601f016020900481019282601f10612db257805160ff1916838001178555612de0565b82800160010185558215612de0579182015b82811115612ddf578251825591602001919060010190612dc4565b5b509050612ded9190612eed565b5090565b60405180608001604052806004905b6060815260200190600190039081612e005790505090565b6040518060c0016040528060008152602001600081526020016000815260200160008019168152602001600015158152602001600081525090565b604051806040016040528060608152602001600081525090565b828054600181600116156101000203166002900490600052602060002090601f016020900481019282601f10612eae57805160ff1916838001178555612edc565b82800160010185558215612edc579182015b82811115612edb578251825591602001919060010190612ec0565b5b509050612ee99190612eed565b5090565b612f0f91905b80821115612f0b576000816000905550600101612ef3565b5090565b9056fea265627a7a72315820207ec2d7987118924174e9cab7c7a1be1622f1a43c9796c696729d46d7d1c62d64736f6c634300050c0032",
  "source": "pragma solidity 0.5.12;\nimport \"./Ownable.sol\";\nimport \"./provableAPI.sol\";\n\ncontract Flipcoin is Ownable, usingProvable{\n\n    struct Player {\n      uint lost;\n      uint won;\n      uint plays;\n      bytes32 provableQuery;\n      bool betOnHead;\n      uint downPayment;\n    }\n\n    event playerRegistered(address adr);\n    event coinFlipResult(string messageToPlayer);\n    event fundsSentToPlayer(string messageToPlayer, address creator, uint toTransfer);\n    event provableQuerySent(string messageToPlayer, address creator);\n    event generatedRandomNumber(string messageToPlayer, address creator, uint256 randomNumber);\n\n\n    uint public balance;\n    uint MIN_BET = 0.1 ether;\n    uint MIN_INITIAL_FUNDS = 0.5 ether;\n    uint256 constant MAX_INT_FROM_BYTE = 256;\n    uint256 constant NUM_RANDOM_BYTES_REQUESTED = 1;\n    bytes m_proof;\n    modifier costs(uint msgFunds){\n        require(msg.value >= msgFunds);\n        _;\n    }\n    \n    mapping (address => Player) private gambler;\n    address payable[] public creators; //TODO change to private\n    \n\n    function __callback(bytes32 _queryId, string memory _result, bytes memory _proof) public {\n        //require(msg.sender == provable_cbAddress()); TODO uncomment\n        m_proof = _proof; //not used, but compiler complains\n        uint256 randomNumber = uint256(keccak256(abi.encodePacked(_result))) % 2;\n        updatePlayer(_queryId, randomNumber);\n    }\n\n    function queryOracle() payable public returns (bytes32)\n    {\n        uint256 QUERY_EXECUTION_DELAY = 0;\n        uint256 GAS_FOR_CALLBACK = 200000;\n        bytes32  queryId = provable_newRandomDSQuery(\n            QUERY_EXECUTION_DELAY,\n            NUM_RANDOM_BYTES_REQUESTED,\n            GAS_FOR_CALLBACK\n        );\n        return queryId;\n    }\n\n    function testRandom() public returns (bytes32){\n        bytes32 queryId = bytes32(keccak256(abi.encodePacked(msg.sender)));\n        __callback(queryId, \"1\", bytes(\"test\"));\n        return queryId;\n    }\n\n    function updatePlayer(bytes32 queryId, uint256 randomNumber) private{\n        address payable creator;\n        for (uint i=0; i<creators.length; i++){\n            creator = creators[i];\n            if (gambler[creator].provableQuery == queryId){\n                gambler[creator].provableQuery = 0;\n                gambler[creator].provableQuery = 0;\n                break;\n            }\n        }\n        emit generatedRandomNumber(\"created random\", creator, randomNumber);\n        isWinner(creator, randomNumber);\n    }\n\n    function depositFunds() public payable{\n        balance += msg.value;\n    }\n    \n    function register() private{\n        Player memory newPlayer;\n        address payable creator = msg.sender;\n        \n        //This creates a player\n        newPlayer.lost = 0;\n        newPlayer.won = 0;\n        newPlayer.plays = 0;\n        newPlayer.downPayment = 0;\n        newPlayer.provableQuery = 0;\n        gambler[creator] = newPlayer; //create new gambler entry\n        creators.push(creator); //save player's address to creators array\n        emit playerRegistered(creator);\n    }\n    \n    function isRegistered(address sender) private{\n        bool userRegistered = false;\n        for (uint i=0; i<creators.length; i++) {\n            if (sender == creators[i]){\n                userRegistered = true;\n            }\n        }\n        //Register before using this contract\n        if(!userRegistered){\n            register();\n        }\n    }\n\n    function flipCoin(bool betOnHead) public payable costs(MIN_BET){\n        uint downPayment = msg.value;\n\n        balance += downPayment;\n        isRegistered(msg.sender);\n        queryOracle();\n        //testRandom();\n        gambler[msg.sender].plays++;\n        gambler[msg.sender].downPayment = downPayment;\n        gambler[msg.sender].betOnHead = betOnHead;\n        emit provableQuerySent(\"provable queried\", msg.sender);\n    }\n\n    function isWinner(address payable creator, uint256 randomNumber) private{\n        Player memory player = gambler[creator];\n        bool betOnHead;\n        if(randomNumber == 1){\n            betOnHead = true;\n        }\n        else if(randomNumber == 0){\n            betOnHead = false;\n        }\n        else{\n            assert(false);\n        }\n        if (betOnHead == player.betOnHead) {\n            player.won++;\n            sendFundsToWinner(creator);\n        }\n        else{\n            player.lost++;\n            emit coinFlipResult(\"loser\");\n        }\n    }\n\n    function sendFundsToWinner(address payable creator) private{\n       uint toTransfer = gambler[creator].downPayment * 2;\n       balance -= toTransfer;\n       creator.transfer(toTransfer);\n       emit fundsSentToPlayer(\"Winner!!!, Funds sent to player \", creator, toTransfer);\n    } \n    \n    function getPlayerData() public view returns(uint won, uint lost, uint plays){\n        address creator = msg.sender;\n        return (gambler[creator].won, gambler[creator].lost, gambler[creator].plays);\n    }\n    \n    function getContractBalance() public view returns (uint){\n        return balance;\n    }\n\n    function withdrawAll() public onlyOwner returns(uint) {\n       uint toTransfer = balance;\n       balance = 0;\n       msg.sender.transfer(toTransfer);\n       return toTransfer;\n    }\n\n}\n",
  "sourcePath": "/Volumes/Data2TB/projects/ethereum201/flipCoinEth/contracts/Flipcoin.sol",
  "compiler": {
    "name": "solc",
    "version": "0.5.12+commit.7709ece9.Emscripten.clang"
  },
  "schemaVersion": "3.0.23",
  "updatedAt": "2020-10-02T20:08:00.112Z",
  "devdoc": {
    "methods": {
      "__callback(bytes32,string)": {
        "details": "The following `__callback` functions are just placeholders ideally     meant to be defined in child contract when proofs are used.     The function bodies simply silence compiler warnings."
      }
    }
  },
  "userdoc": {
    "methods": {}
  }
}