{
  "contractName": "Flipcoin",
  "abi": [
    {
      "anonymous": false,
      "inputs": [
        {
          "indexed": false,
          "internalType": "string",
          "name": "messageToPlayer",
          "type": "string"
        }
      ],
      "name": "coinFlipResult",
      "type": "event"
    },
    {
      "anonymous": false,
      "inputs": [
        {
          "indexed": false,
          "internalType": "string",
          "name": "messageToPlayer",
          "type": "string"
        },
        {
          "indexed": false,
          "internalType": "uint256",
          "name": "toTransfer",
          "type": "uint256"
        }
      ],
      "name": "fundsSentToPlayer",
      "type": "event"
    },
    {
      "anonymous": false,
      "inputs": [
        {
          "indexed": false,
          "internalType": "address",
          "name": "adr",
          "type": "address"
        }
      ],
      "name": "playerRegistered",
      "type": "event"
    },
    {
      "constant": true,
      "inputs": [],
      "name": "balance",
      "outputs": [
        {
          "internalType": "uint256",
          "name": "",
          "type": "uint256"
        }
      ],
      "payable": false,
      "stateMutability": "view",
      "type": "function"
    },
    {
      "constant": true,
      "inputs": [
        {
          "internalType": "uint256",
          "name": "",
          "type": "uint256"
        }
      ],
      "name": "creators",
      "outputs": [
        {
          "internalType": "address",
          "name": "",
          "type": "address"
        }
      ],
      "payable": false,
      "stateMutability": "view",
      "type": "function"
    },
    {
      "constant": true,
      "inputs": [],
      "name": "owner",
      "outputs": [
        {
          "internalType": "address",
          "name": "",
          "type": "address"
        }
      ],
      "payable": false,
      "stateMutability": "view",
      "type": "function"
    },
    {
      "constant": false,
      "inputs": [],
      "name": "depositFunds",
      "outputs": [],
      "payable": true,
      "stateMutability": "payable",
      "type": "function"
    },
    {
      "constant": false,
      "inputs": [],
      "name": "register",
      "outputs": [],
      "payable": false,
      "stateMutability": "nonpayable",
      "type": "function"
    },
    {
      "constant": false,
      "inputs": [
        {
          "internalType": "bool",
          "name": "betOnHead",
          "type": "bool"
        }
      ],
      "name": "flipCoin",
      "outputs": [
        {
          "internalType": "bool",
          "name": "",
          "type": "bool"
        }
      ],
      "payable": true,
      "stateMutability": "payable",
      "type": "function"
    },
    {
      "constant": true,
      "inputs": [],
      "name": "getPlayerData",
      "outputs": [
        {
          "internalType": "uint256",
          "name": "won",
          "type": "uint256"
        },
        {
          "internalType": "uint256",
          "name": "lost",
          "type": "uint256"
        },
        {
          "internalType": "uint256",
          "name": "plays",
          "type": "uint256"
        }
      ],
      "payable": false,
      "stateMutability": "view",
      "type": "function"
    },
    {
      "constant": false,
      "inputs": [],
      "name": "withdrawAll",
      "outputs": [
        {
          "internalType": "uint256",
          "name": "",
          "type": "uint256"
        }
      ],
      "payable": false,
      "stateMutability": "nonpayable",
      "type": "function"
    }
  ],
  "bytecode": "0x608060405267016345785d8a0000600255674563918244f40000600355336000806101000a81548173ffffffffffffffffffffffffffffffffffffffff021916908373ffffffffffffffffffffffffffffffffffffffff160217905550610aaa8061006b6000396000f3fe60806040526004361061007b5760003560e01c80638da5cb5b1161004e5780638da5cb5b14610143578063b69ef8a81461019a578063cd53d08e146101c5578063e2c41dbc146102405761007b565b80631aa3a008146100805780631cf1f4ba146100975780637b8ff38f146100d0578063853828b614610118575b600080fd5b34801561008c57600080fd5b5061009561024a565b005b3480156100a357600080fd5b506100ac6103a6565b60405180848152602001838152602001828152602001935050505060405180910390f35b6100fe600480360360208110156100e657600080fd5b81019080803515159060200190929190505050610484565b604051808215151515815260200191505060405180910390f35b34801561012457600080fd5b5061012d6106ac565b6040518082815260200191505060405180910390f35b34801561014f57600080fd5b50610158610764565b604051808273ffffffffffffffffffffffffffffffffffffffff1673ffffffffffffffffffffffffffffffffffffffff16815260200191505060405180910390f35b3480156101a657600080fd5b506101af610789565b6040518082815260200191505060405180910390f35b3480156101d157600080fd5b506101fe600480360360208110156101e857600080fd5b810190808035906020019092919050505061078f565b604051808273ffffffffffffffffffffffffffffffffffffffff1673ffffffffffffffffffffffffffffffffffffffff16815260200191505060405180910390f35b6102486107cb565b005b610252610a54565b600033905060008260000181815250506000826020018181525050600082604001818152505081600460008373ffffffffffffffffffffffffffffffffffffffff1673ffffffffffffffffffffffffffffffffffffffff16815260200190815260200160002060008201518160000155602082015181600101556040820151816002015590505060058190806001815401808255809150509060018203906000526020600020016000909192909190916101000a81548173ffffffffffffffffffffffffffffffffffffffff021916908373ffffffffffffffffffffffffffffffffffffffff160217905550507f9b66d49082843aa418cd502edc3b870cda1cef5aa3c1e289ca61475532afd35681604051808273ffffffffffffffffffffffffffffffffffffffff1673ffffffffffffffffffffffffffffffffffffffff16815260200191505060405180910390a15050565b600080600080339050600460008273ffffffffffffffffffffffffffffffffffffffff1673ffffffffffffffffffffffffffffffffffffffff16815260200190815260200160002060010154600460008373ffffffffffffffffffffffffffffffffffffffff1673ffffffffffffffffffffffffffffffffffffffff16815260200190815260200160002060000154600460008473ffffffffffffffffffffffffffffffffffffffff1673ffffffffffffffffffffffffffffffffffffffff1681526020019081526020016000206002015493509350935050909192565b60006002548034101561049657600080fd5b6000349050806001600082825401925050819055506000600115156104ba33610847565b1515146104c357fe5b600460003373ffffffffffffffffffffffffffffffffffffffff1673ffffffffffffffffffffffffffffffffffffffff1681526020019081526020016000206002016000815480929190600101919050555061051f85836108e9565b905080156105e657600460003373ffffffffffffffffffffffffffffffffffffffff1673ffffffffffffffffffffffffffffffffffffffff168152602001908152602001600020600101600081548092919060010191905055507f921679bd194d714a16755b5a884fd061cf2dc194ef44ed3f453b13eeaf1cf1e46040518080602001828103825260068152602001807f77696e6e6572000000000000000000000000000000000000000000000000000081525060200191505060405180910390a16106a1565b600460003373ffffffffffffffffffffffffffffffffffffffff1673ffffffffffffffffffffffffffffffffffffffff168152602001908152602001600020600001600081548092919060010191905055507f921679bd194d714a16755b5a884fd061cf2dc194ef44ed3f453b13eeaf1cf1e46040518080602001828103825260058152602001807f6c6f73657200000000000000000000000000000000000000000000000000000081525060200191505060405180910390a15b809350505050919050565b60008060009054906101000a900473ffffffffffffffffffffffffffffffffffffffff1673ffffffffffffffffffffffffffffffffffffffff163373ffffffffffffffffffffffffffffffffffffffff161461070757600080fd5b6000600154905060006001819055503373ffffffffffffffffffffffffffffffffffffffff166108fc829081150290604051600060405180830381858888f1935050505015801561075c573d6000803e3d6000fd5b508091505090565b6000809054906101000a900473ffffffffffffffffffffffffffffffffffffffff1681565b60015481565b6005818154811061079c57fe5b906000526020600020016000915054906101000a900473ffffffffffffffffffffffffffffffffffffffff1681565b6000809054906101000a900473ffffffffffffffffffffffffffffffffffffffff1673ffffffffffffffffffffffffffffffffffffffff163373ffffffffffffffffffffffffffffffffffffffff161461082457600080fd5b6003548034101561083457600080fd5b3460016000828254019250508190555050565b600080600090505b6005805490508110156108de576005818154811061086957fe5b9060005260206000200160009054906101000a900473ffffffffffffffffffffffffffffffffffffffff1673ffffffffffffffffffffffffffffffffffffffff168373ffffffffffffffffffffffffffffffffffffffff1614156108d15760019150506108e4565b808060010191505061084f565b50600090505b919050565b6000806108f4610955565b9050808015610907575060011515841515145b1561091f5761091583610981565b600191505061094f565b80158015610931575060001515841515145b156109495761093f83610981565b600191505061094f565b60009150505b92915050565b6000806002428161096257fe5b069050600181141561097857600191505061097e565b60009150505b90565b6000600282029050806001600082825403925050819055503373ffffffffffffffffffffffffffffffffffffffff166108fc829081150290604051600060405180830381858888f193505050501580156109df573d6000803e3d6000fd5b507f2bb9fa17dc9290b2963eb2a00635987ba9d1f3f073d7eb0f19cddf7aea8ffd65816040518080602001838152602001828103825260158152602001807f46756e64732073656e7420746f20706c617965722000000000000000000000008152506020019250505060405180910390a15050565b6040518060600160405280600081526020016000815260200160008152509056fea265627a7a723158200fb702e08677ddecc3e12fb925fc76ad6f5171711529d2bd10b8a2224e53fcd564736f6c634300050c0032",
  "source": "import \"./Ownable.sol\";\npragma solidity 0.5.12;\n\ncontract Flipcoin is Ownable{\n\n    struct Player {\n      uint lost;\n      uint won;\n      uint plays;\n    }\n\n    event playerRegistered(address adr);\n    event coinFlipResult(string messageToPlayer);\n    event fundsSentToPlayer(string messageToPlayer, uint toTransfer);\n\n    uint public balance;\n    uint MIN_BET = 0.1 ether;\n    uint MIN_INITIAL_FUNDS = 5 ether;\n\n    modifier costs(uint msgFunds){\n        require(msg.value >= msgFunds);\n        _;\n    }\n    \n    mapping (address => Player) private gambler;\n    address[] public creators; //TODO change to private\n    \n    function depositFunds() public payable onlyOwner costs(MIN_INITIAL_FUNDS){\n        balance += msg.value;\n    }\n    \n    function register() public{\n        Player memory newPlayer;\n        address creator = msg.sender;\n        \n        //This creates a player\n        newPlayer.lost = 0;\n        newPlayer.won = 0;\n        newPlayer.plays = 0;\n        gambler[creator] = newPlayer; //create new gambler entry\n        creators.push(creator); //save player's address to creators array\n        emit playerRegistered(creator);\n    }\n    \n    function isRegistered(address sender) private view returns(bool){\n        for (uint i=0; i<creators.length; i++) {\n            if (sender == creators[i]){\n                return true;\n            }\n        }\n        //Please register before using this contract\n        return false;\n    }\n\n    function flipCoin(bool betOnHead) public payable costs(MIN_BET) returns (bool){\n        uint downPayment = msg.value;\n        balance += downPayment;\n        bool result;\n        assert (isRegistered(msg.sender) == true);\n        \n        gambler[msg.sender].plays++;\n        result = isWinner(betOnHead, downPayment) ;\n        if (result) {\n            gambler[msg.sender].won++;\n            emit coinFlipResult(\"winner\");\n        }\n        else{\n            gambler[msg.sender].lost++;\n            emit coinFlipResult(\"loser\");\n        }\n        return result;\n    }\n\n    function isWinner(bool betOnHead, uint downPayment) private returns(bool){\n        bool flippedHead = goFlip();\n        if (flippedHead && betOnHead == true){\n            sendFundsToWinner(downPayment);\n            return true;\n        }\n        else if(!flippedHead && betOnHead == false){\n            sendFundsToWinner(downPayment);\n            return true;\n        }\n        else{\n            return false;\n        }\n    }\n    \n    function goFlip() private view returns (bool){\n        uint rdm = now % 2;\n        if (rdm == 1){\n            return true;\n        }\n        return false;\n    }\n\n    function sendFundsToWinner(uint downPayment) private{\n       uint toTransfer = downPayment * 2;\n       balance -= toTransfer;\n       msg.sender.transfer(toTransfer);\n       emit fundsSentToPlayer(\"Funds sent to player \", toTransfer);\n    } \n    \n    function getPlayerData() public view returns(uint won, uint lost, uint plays){\n        address creator = msg.sender;\n        return (gambler[creator].won, gambler[creator].lost, gambler[creator].plays);\n    }\n\n   function withdrawAll() public onlyOwner returns(uint) {\n       uint toTransfer = balance;\n       balance = 0;\n       msg.sender.transfer(toTransfer);\n       return toTransfer;\n   }\n\n}\n",
  "sourcePath": "/Volumes/Data2TB/projects/ethereum201/flipCoinEth/contracts/Flipcoin.sol",
  "compiler": {
    "name": "solc",
    "version": "0.5.12+commit.7709ece9.Emscripten.clang"
  },
  "schemaVersion": "3.0.23",
  "updatedAt": "2020-09-28T20:56:46.677Z",
  "networkType": "ethereum",
  "devdoc": {
    "methods": {}
  },
  "userdoc": {
    "methods": {}
  }
}