{
  "contractName": "Flipcoin",
  "abi": [
    {
      "anonymous": false,
      "inputs": [
        {
          "indexed": false,
          "internalType": "string",
          "name": "messageToPlayer",
          "type": "string"
        }
      ],
      "name": "coinFlipResult",
      "type": "event"
    },
    {
      "anonymous": false,
      "inputs": [
        {
          "indexed": false,
          "internalType": "string",
          "name": "messageToPlayer",
          "type": "string"
        },
        {
          "indexed": false,
          "internalType": "uint256",
          "name": "toTransfer",
          "type": "uint256"
        }
      ],
      "name": "fundsSentToPlayer",
      "type": "event"
    },
    {
      "anonymous": false,
      "inputs": [
        {
          "indexed": false,
          "internalType": "address",
          "name": "adr",
          "type": "address"
        }
      ],
      "name": "playerRegistered",
      "type": "event"
    },
    {
      "constant": true,
      "inputs": [],
      "name": "balance",
      "outputs": [
        {
          "internalType": "uint256",
          "name": "",
          "type": "uint256"
        }
      ],
      "payable": false,
      "stateMutability": "view",
      "type": "function"
    },
    {
      "constant": true,
      "inputs": [
        {
          "internalType": "uint256",
          "name": "",
          "type": "uint256"
        }
      ],
      "name": "creators",
      "outputs": [
        {
          "internalType": "address",
          "name": "",
          "type": "address"
        }
      ],
      "payable": false,
      "stateMutability": "view",
      "type": "function"
    },
    {
      "constant": true,
      "inputs": [],
      "name": "owner",
      "outputs": [
        {
          "internalType": "address",
          "name": "",
          "type": "address"
        }
      ],
      "payable": false,
      "stateMutability": "view",
      "type": "function"
    },
    {
      "constant": false,
      "inputs": [],
      "name": "depositFunds",
      "outputs": [],
      "payable": true,
      "stateMutability": "payable",
      "type": "function"
    },
    {
      "constant": false,
      "inputs": [
        {
          "internalType": "bool",
          "name": "betOnHead",
          "type": "bool"
        }
      ],
      "name": "flipCoin",
      "outputs": [
        {
          "internalType": "bool",
          "name": "",
          "type": "bool"
        }
      ],
      "payable": true,
      "stateMutability": "payable",
      "type": "function"
    },
    {
      "constant": true,
      "inputs": [],
      "name": "getPlayerData",
      "outputs": [
        {
          "internalType": "uint256",
          "name": "won",
          "type": "uint256"
        },
        {
          "internalType": "uint256",
          "name": "lost",
          "type": "uint256"
        },
        {
          "internalType": "uint256",
          "name": "plays",
          "type": "uint256"
        }
      ],
      "payable": false,
      "stateMutability": "view",
      "type": "function"
    },
    {
      "constant": true,
      "inputs": [],
      "name": "getContractBalance",
      "outputs": [
        {
          "internalType": "uint256",
          "name": "",
          "type": "uint256"
        }
      ],
      "payable": false,
      "stateMutability": "view",
      "type": "function"
    },
    {
      "constant": false,
      "inputs": [],
      "name": "withdrawAll",
      "outputs": [
        {
          "internalType": "uint256",
          "name": "",
          "type": "uint256"
        }
      ],
      "payable": false,
      "stateMutability": "nonpayable",
      "type": "function"
    }
  ],
  "bytecode": "0x608060405267016345785d8a0000600255674563918244f40000600355336000806101000a81548173ffffffffffffffffffffffffffffffffffffffff021916908373ffffffffffffffffffffffffffffffffffffffff160217905550610ab08061006b6000396000f3fe60806040526004361061007b5760003560e01c80638da5cb5b1161004e5780638da5cb5b14610157578063b69ef8a8146101ae578063cd53d08e146101d9578063e2c41dbc146102545761007b565b80631cf1f4ba146100805780636f9fb98a146100b95780637b8ff38f146100e4578063853828b61461012c575b600080fd5b34801561008c57600080fd5b5061009561025e565b60405180848152602001838152602001828152602001935050505060405180910390f35b3480156100c557600080fd5b506100ce61033c565b6040518082815260200191505060405180910390f35b610112600480360360208110156100fa57600080fd5b81019080803515159060200190929190505050610346565b604051808215151515815260200191505060405180910390f35b34801561013857600080fd5b50610141610561565b6040518082815260200191505060405180910390f35b34801561016357600080fd5b5061016c610619565b604051808273ffffffffffffffffffffffffffffffffffffffff1673ffffffffffffffffffffffffffffffffffffffff16815260200191505060405180910390f35b3480156101ba57600080fd5b506101c361063e565b6040518082815260200191505060405180910390f35b3480156101e557600080fd5b50610212600480360360208110156101fc57600080fd5b8101908080359060200190929190505050610644565b604051808273ffffffffffffffffffffffffffffffffffffffff1673ffffffffffffffffffffffffffffffffffffffff16815260200191505060405180910390f35b61025c610680565b005b600080600080339050600460008273ffffffffffffffffffffffffffffffffffffffff1673ffffffffffffffffffffffffffffffffffffffff16815260200190815260200160002060010154600460008373ffffffffffffffffffffffffffffffffffffffff1673ffffffffffffffffffffffffffffffffffffffff16815260200190815260200160002060000154600460008473ffffffffffffffffffffffffffffffffffffffff1673ffffffffffffffffffffffffffffffffffffffff1681526020019081526020016000206002015493509350935050909192565b6000600154905090565b60006002548034101561035857600080fd5b6000349050806001600082825401925050819055506000610378336106eb565b600460003373ffffffffffffffffffffffffffffffffffffffff1673ffffffffffffffffffffffffffffffffffffffff168152602001908152602001600020600201600081548092919060010191905055506103d48583610793565b9050801561049b57600460003373ffffffffffffffffffffffffffffffffffffffff1673ffffffffffffffffffffffffffffffffffffffff168152602001908152602001600020600101600081548092919060010191905055507f921679bd194d714a16755b5a884fd061cf2dc194ef44ed3f453b13eeaf1cf1e46040518080602001828103825260068152602001807f77696e6e6572000000000000000000000000000000000000000000000000000081525060200191505060405180910390a1610556565b600460003373ffffffffffffffffffffffffffffffffffffffff1673ffffffffffffffffffffffffffffffffffffffff168152602001908152602001600020600001600081548092919060010191905055507f921679bd194d714a16755b5a884fd061cf2dc194ef44ed3f453b13eeaf1cf1e46040518080602001828103825260058152602001807f6c6f73657200000000000000000000000000000000000000000000000000000081525060200191505060405180910390a15b809350505050919050565b60008060009054906101000a900473ffffffffffffffffffffffffffffffffffffffff1673ffffffffffffffffffffffffffffffffffffffff163373ffffffffffffffffffffffffffffffffffffffff16146105bc57600080fd5b6000600154905060006001819055503373ffffffffffffffffffffffffffffffffffffffff166108fc829081150290604051600060405180830381858888f19350505050158015610611573d6000803e3d6000fd5b508091505090565b6000809054906101000a900473ffffffffffffffffffffffffffffffffffffffff1681565b60015481565b6005818154811061065157fe5b906000526020600020016000915054906101000a900473ffffffffffffffffffffffffffffffffffffffff1681565b6000809054906101000a900473ffffffffffffffffffffffffffffffffffffffff1673ffffffffffffffffffffffffffffffffffffffff163373ffffffffffffffffffffffffffffffffffffffff16146106d957600080fd5b34600160008282540192505081905550565b600080905060008090505b600580549050811015610780576005818154811061071057fe5b9060005260206000200160009054906101000a900473ffffffffffffffffffffffffffffffffffffffff1673ffffffffffffffffffffffffffffffffffffffff168373ffffffffffffffffffffffffffffffffffffffff16141561077357600191505b80806001019150506106f6565b508061078f5761078e6107ff565b5b5050565b60008061079e61095b565b90508080156107b1575060011515841515145b156107c9576107bf83610987565b60019150506107f9565b801580156107db575060001515841515145b156107f3576107e983610987565b60019150506107f9565b60009150505b92915050565b610807610a5a565b600033905060008260000181815250506000826020018181525050600082604001818152505081600460008373ffffffffffffffffffffffffffffffffffffffff1673ffffffffffffffffffffffffffffffffffffffff16815260200190815260200160002060008201518160000155602082015181600101556040820151816002015590505060058190806001815401808255809150509060018203906000526020600020016000909192909190916101000a81548173ffffffffffffffffffffffffffffffffffffffff021916908373ffffffffffffffffffffffffffffffffffffffff160217905550507f9b66d49082843aa418cd502edc3b870cda1cef5aa3c1e289ca61475532afd35681604051808273ffffffffffffffffffffffffffffffffffffffff1673ffffffffffffffffffffffffffffffffffffffff16815260200191505060405180910390a15050565b6000806002428161096857fe5b069050600181141561097e576001915050610984565b60009150505b90565b6000600282029050806001600082825403925050819055503373ffffffffffffffffffffffffffffffffffffffff166108fc829081150290604051600060405180830381858888f193505050501580156109e5573d6000803e3d6000fd5b507f2bb9fa17dc9290b2963eb2a00635987ba9d1f3f073d7eb0f19cddf7aea8ffd65816040518080602001838152602001828103825260158152602001807f46756e64732073656e7420746f20706c617965722000000000000000000000008152506020019250505060405180910390a15050565b6040518060600160405280600081526020016000815260200160008152509056fea265627a7a723158206dd24f805b6181f96a6750a2a2b57f2fda0e0cd7b5292e20de8e239351c2a2b864736f6c634300050c0032",
  "source": "import \"./Ownable.sol\";\npragma solidity 0.5.12;\n\ncontract Flipcoin is Ownable{\n\n    struct Player {\n      uint lost;\n      uint won;\n      uint plays;\n    }\n\n    event playerRegistered(address adr);\n    event coinFlipResult(string messageToPlayer);\n    event fundsSentToPlayer(string messageToPlayer, uint toTransfer);\n\n    uint public balance;\n    uint MIN_BET = 0.1 ether;\n    uint MIN_INITIAL_FUNDS = 5 ether;\n\n    modifier costs(uint msgFunds){\n        require(msg.value >= msgFunds);\n        _;\n    }\n    \n    mapping (address => Player) private gambler;\n    address[] public creators; //TODO change to private\n    \n    function depositFunds() public payable onlyOwner{\n        balance += msg.value;\n    }\n    \n    function register() private{\n        Player memory newPlayer;\n        address creator = msg.sender;\n        \n        //This creates a player\n        newPlayer.lost = 0;\n        newPlayer.won = 0;\n        newPlayer.plays = 0;\n        gambler[creator] = newPlayer; //create new gambler entry\n        creators.push(creator); //save player's address to creators array\n        emit playerRegistered(creator);\n    }\n    \n    function isRegistered(address sender) private{\n        bool userRegistered = false;\n        for (uint i=0; i<creators.length; i++) {\n            if (sender == creators[i]){\n                userRegistered = true;\n            }\n        }\n        //Register before using this contract\n        if(!userRegistered){\n            register();\n        }\n    }\n\n    function flipCoin(bool betOnHead) public payable costs(MIN_BET) returns (bool){\n        uint downPayment = msg.value;\n        balance += downPayment;\n        bool result;\n        isRegistered(msg.sender);\n        \n        gambler[msg.sender].plays++;\n        result = isWinner(betOnHead, downPayment) ;\n        if (result) {\n            gambler[msg.sender].won++;\n            emit coinFlipResult(\"winner\");\n        }\n        else{\n            gambler[msg.sender].lost++;\n            emit coinFlipResult(\"loser\");\n        }\n        return result;\n    }\n\n    function isWinner(bool betOnHead, uint downPayment) private returns(bool){\n        bool flippedHead = goFlip();\n        if (flippedHead && betOnHead == true){\n            sendFundsToWinner(downPayment);\n            return true;\n        }\n        else if(!flippedHead && betOnHead == false){\n            sendFundsToWinner(downPayment);\n            return true;\n        }\n        else{\n            return false;\n        }\n    }\n    \n    function goFlip() private view returns (bool){\n        uint rdm = now % 2;\n        if (rdm == 1){\n            return true;\n        }\n        return false;\n    }\n\n    function sendFundsToWinner(uint downPayment) private{\n       uint toTransfer = downPayment * 2;\n       balance -= toTransfer;\n       msg.sender.transfer(toTransfer);\n       emit fundsSentToPlayer(\"Funds sent to player \", toTransfer);\n    } \n    \n    function getPlayerData() public view returns(uint won, uint lost, uint plays){\n        address creator = msg.sender;\n        return (gambler[creator].won, gambler[creator].lost, gambler[creator].plays);\n    }\n    \n    function getContractBalance() public view returns (uint){\n        return balance;\n    }\n\n    function withdrawAll() public onlyOwner returns(uint) {\n       uint toTransfer = balance;\n       balance = 0;\n       msg.sender.transfer(toTransfer);\n       return toTransfer;\n    }\n\n}\n",
  "sourcePath": "/Volumes/Data2TB/projects/ethereum201/flipCoinEth/contracts/Flipcoin.sol",
  "compiler": {
    "name": "solc",
    "version": "0.5.12+commit.7709ece9.Emscripten.clang"
  },
  "schemaVersion": "3.0.23",
  "updatedAt": "2020-10-01T13:53:44.262Z",
  "networkType": "ethereum",
  "devdoc": {
    "methods": {}
  },
  "userdoc": {
    "methods": {}
  }
}